{
  "_format": "hh-sol-artifact-1",
  "contractName": "EntryPoint",
  "sourceName": "@account-abstraction/contracts/core/EntryPoint.sol",
  "abi": [
    {
      "inputs": [
        {
          "internalType": "uint256",
          "name": "preOpGas",
          "type": "uint256"
        },
        {
          "internalType": "uint256",
          "name": "paid",
          "type": "uint256"
        },
        {
          "internalType": "uint48",
          "name": "validAfter",
          "type": "uint48"
        },
        {
          "internalType": "uint48",
          "name": "validUntil",
          "type": "uint48"
        },
        {
          "internalType": "bool",
          "name": "targetSuccess",
          "type": "bool"
        },
        {
          "internalType": "bytes",
          "name": "targetResult",
          "type": "bytes"
        }
      ],
      "name": "ExecutionResult",
      "type": "error"
    },
    {
      "inputs": [
        {
          "internalType": "uint256",
          "name": "opIndex",
          "type": "uint256"
        },
        {
          "internalType": "string",
          "name": "reason",
          "type": "string"
        }
      ],
      "name": "FailedOp",
      "type": "error"
    },
    {
      "inputs": [
        {
          "internalType": "address",
          "name": "sender",
          "type": "address"
        }
      ],
      "name": "SenderAddressResult",
      "type": "error"
    },
    {
      "inputs": [
        {
          "internalType": "address",
          "name": "aggregator",
          "type": "address"
        }
      ],
      "name": "SignatureValidationFailed",
      "type": "error"
    },
    {
      "inputs": [
        {
          "components": [
            {
              "internalType": "uint256",
              "name": "preOpGas",
              "type": "uint256"
            },
            {
              "internalType": "uint256",
              "name": "prefund",
              "type": "uint256"
            },
            {
              "internalType": "bool",
              "name": "sigFailed",
              "type": "bool"
            },
            {
              "internalType": "uint48",
              "name": "validAfter",
              "type": "uint48"
            },
            {
              "internalType": "uint48",
              "name": "validUntil",
              "type": "uint48"
            },
            {
              "internalType": "bytes",
              "name": "paymasterContext",
              "type": "bytes"
            }
          ],
          "internalType": "struct IEntryPoint.ReturnInfo",
          "name": "returnInfo",
          "type": "tuple"
        },
        {
          "components": [
            {
              "internalType": "uint256",
              "name": "stake",
              "type": "uint256"
            },
            {
              "internalType": "uint256",
              "name": "unstakeDelaySec",
              "type": "uint256"
            }
          ],
          "internalType": "struct IStakeManager.StakeInfo",
          "name": "senderInfo",
          "type": "tuple"
        },
        {
          "components": [
            {
              "internalType": "uint256",
              "name": "stake",
              "type": "uint256"
            },
            {
              "internalType": "uint256",
              "name": "unstakeDelaySec",
              "type": "uint256"
            }
          ],
          "internalType": "struct IStakeManager.StakeInfo",
          "name": "factoryInfo",
          "type": "tuple"
        },
        {
          "components": [
            {
              "internalType": "uint256",
              "name": "stake",
              "type": "uint256"
            },
            {
              "internalType": "uint256",
              "name": "unstakeDelaySec",
              "type": "uint256"
            }
          ],
          "internalType": "struct IStakeManager.StakeInfo",
          "name": "paymasterInfo",
          "type": "tuple"
        }
      ],
      "name": "ValidationResult",
      "type": "error"
    },
    {
      "inputs": [
        {
          "components": [
            {
              "internalType": "uint256",
              "name": "preOpGas",
              "type": "uint256"
            },
            {
              "internalType": "uint256",
              "name": "prefund",
              "type": "uint256"
            },
            {
              "internalType": "bool",
              "name": "sigFailed",
              "type": "bool"
            },
            {
              "internalType": "uint48",
              "name": "validAfter",
              "type": "uint48"
            },
            {
              "internalType": "uint48",
              "name": "validUntil",
              "type": "uint48"
            },
            {
              "internalType": "bytes",
              "name": "paymasterContext",
              "type": "bytes"
            }
          ],
          "internalType": "struct IEntryPoint.ReturnInfo",
          "name": "returnInfo",
          "type": "tuple"
        },
        {
          "components": [
            {
              "internalType": "uint256",
              "name": "stake",
              "type": "uint256"
            },
            {
              "internalType": "uint256",
              "name": "unstakeDelaySec",
              "type": "uint256"
            }
          ],
          "internalType": "struct IStakeManager.StakeInfo",
          "name": "senderInfo",
          "type": "tuple"
        },
        {
          "components": [
            {
              "internalType": "uint256",
              "name": "stake",
              "type": "uint256"
            },
            {
              "internalType": "uint256",
              "name": "unstakeDelaySec",
              "type": "uint256"
            }
          ],
          "internalType": "struct IStakeManager.StakeInfo",
          "name": "factoryInfo",
          "type": "tuple"
        },
        {
          "components": [
            {
              "internalType": "uint256",
              "name": "stake",
              "type": "uint256"
            },
            {
              "internalType": "uint256",
              "name": "unstakeDelaySec",
              "type": "uint256"
            }
          ],
          "internalType": "struct IStakeManager.StakeInfo",
          "name": "paymasterInfo",
          "type": "tuple"
        },
        {
          "components": [
            {
              "internalType": "address",
              "name": "aggregator",
              "type": "address"
            },
            {
              "components": [
                {
                  "internalType": "uint256",
                  "name": "stake",
                  "type": "uint256"
                },
                {
                  "internalType": "uint256",
                  "name": "unstakeDelaySec",
                  "type": "uint256"
                }
              ],
              "internalType": "struct IStakeManager.StakeInfo",
              "name": "stakeInfo",
              "type": "tuple"
            }
          ],
          "internalType": "struct IEntryPoint.AggregatorStakeInfo",
          "name": "aggregatorInfo",
          "type": "tuple"
        }
      ],
      "name": "ValidationResultWithAggregation",
      "type": "error"
    },
    {
      "anonymous": false,
      "inputs": [
        {
          "indexed": true,
          "internalType": "bytes32",
          "name": "userOpHash",
          "type": "bytes32"
        },
        {
          "indexed": true,
          "internalType": "address",
          "name": "sender",
          "type": "address"
        },
        {
          "indexed": false,
          "internalType": "address",
          "name": "factory",
          "type": "address"
        },
        {
          "indexed": false,
          "internalType": "address",
          "name": "paymaster",
          "type": "address"
        }
      ],
      "name": "AccountDeployed",
      "type": "event"
    },
    {
      "anonymous": false,
      "inputs": [],
      "name": "BeforeExecution",
      "type": "event"
    },
    {
      "anonymous": false,
      "inputs": [
        {
          "indexed": true,
          "internalType": "address",
          "name": "account",
          "type": "address"
        },
        {
          "indexed": false,
          "internalType": "uint256",
          "name": "totalDeposit",
          "type": "uint256"
        }
      ],
      "name": "Deposited",
      "type": "event"
    },
    {
      "anonymous": false,
      "inputs": [
        {
          "indexed": true,
          "internalType": "address",
          "name": "aggregator",
          "type": "address"
        }
      ],
      "name": "SignatureAggregatorChanged",
      "type": "event"
    },
    {
      "anonymous": false,
      "inputs": [
        {
          "indexed": true,
          "internalType": "address",
          "name": "account",
          "type": "address"
        },
        {
          "indexed": false,
          "internalType": "uint256",
          "name": "totalStaked",
          "type": "uint256"
        },
        {
          "indexed": false,
          "internalType": "uint256",
          "name": "unstakeDelaySec",
          "type": "uint256"
        }
      ],
      "name": "StakeLocked",
      "type": "event"
    },
    {
      "anonymous": false,
      "inputs": [
        {
          "indexed": true,
          "internalType": "address",
          "name": "account",
          "type": "address"
        },
        {
          "indexed": false,
          "internalType": "uint256",
          "name": "withdrawTime",
          "type": "uint256"
        }
      ],
      "name": "StakeUnlocked",
      "type": "event"
    },
    {
      "anonymous": false,
      "inputs": [
        {
          "indexed": true,
          "internalType": "address",
          "name": "account",
          "type": "address"
        },
        {
          "indexed": false,
          "internalType": "address",
          "name": "withdrawAddress",
          "type": "address"
        },
        {
          "indexed": false,
          "internalType": "uint256",
          "name": "amount",
          "type": "uint256"
        }
      ],
      "name": "StakeWithdrawn",
      "type": "event"
    },
    {
      "anonymous": false,
      "inputs": [
        {
          "indexed": true,
          "internalType": "bytes32",
          "name": "userOpHash",
          "type": "bytes32"
        },
        {
          "indexed": true,
          "internalType": "address",
          "name": "sender",
          "type": "address"
        },
        {
          "indexed": true,
          "internalType": "address",
          "name": "paymaster",
          "type": "address"
        },
        {
          "indexed": false,
          "internalType": "uint256",
          "name": "nonce",
          "type": "uint256"
        },
        {
          "indexed": false,
          "internalType": "bool",
          "name": "success",
          "type": "bool"
        },
        {
          "indexed": false,
          "internalType": "uint256",
          "name": "actualGasCost",
          "type": "uint256"
        },
        {
          "indexed": false,
          "internalType": "uint256",
          "name": "actualGasUsed",
          "type": "uint256"
        }
      ],
      "name": "UserOperationEvent",
      "type": "event"
    },
    {
      "anonymous": false,
      "inputs": [
        {
          "indexed": true,
          "internalType": "bytes32",
          "name": "userOpHash",
          "type": "bytes32"
        },
        {
          "indexed": true,
          "internalType": "address",
          "name": "sender",
          "type": "address"
        },
        {
          "indexed": false,
          "internalType": "uint256",
          "name": "nonce",
          "type": "uint256"
        },
        {
          "indexed": false,
          "internalType": "bytes",
          "name": "revertReason",
          "type": "bytes"
        }
      ],
      "name": "UserOperationRevertReason",
      "type": "event"
    },
    {
      "anonymous": false,
      "inputs": [
        {
          "indexed": true,
          "internalType": "address",
          "name": "account",
          "type": "address"
        },
        {
          "indexed": false,
          "internalType": "address",
          "name": "withdrawAddress",
          "type": "address"
        },
        {
          "indexed": false,
          "internalType": "uint256",
          "name": "amount",
          "type": "uint256"
        }
      ],
      "name": "Withdrawn",
      "type": "event"
    },
    {
      "inputs": [],
      "name": "SIG_VALIDATION_FAILED",
      "outputs": [
        {
          "internalType": "uint256",
          "name": "",
          "type": "uint256"
        }
      ],
      "stateMutability": "view",
      "type": "function"
    },
    {
      "inputs": [
        {
          "internalType": "bytes",
          "name": "initCode",
          "type": "bytes"
        },
        {
          "internalType": "address",
          "name": "sender",
          "type": "address"
        },
        {
          "internalType": "bytes",
          "name": "paymasterAndData",
          "type": "bytes"
        }
      ],
      "name": "_validateSenderAndPaymaster",
      "outputs": [],
      "stateMutability": "view",
      "type": "function"
    },
    {
      "inputs": [
        {
          "internalType": "uint32",
          "name": "unstakeDelaySec",
          "type": "uint32"
        }
      ],
      "name": "addStake",
      "outputs": [],
      "stateMutability": "payable",
      "type": "function"
    },
    {
      "inputs": [
        {
          "internalType": "address",
          "name": "account",
          "type": "address"
        }
      ],
      "name": "balanceOf",
      "outputs": [
        {
          "internalType": "uint256",
          "name": "",
          "type": "uint256"
        }
      ],
      "stateMutability": "view",
      "type": "function"
    },
    {
      "inputs": [
        {
          "internalType": "address",
          "name": "account",
          "type": "address"
        }
      ],
      "name": "depositTo",
      "outputs": [],
      "stateMutability": "payable",
      "type": "function"
    },
    {
      "inputs": [
        {
          "internalType": "address",
          "name": "",
          "type": "address"
        }
      ],
      "name": "deposits",
      "outputs": [
        {
          "internalType": "uint112",
          "name": "deposit",
          "type": "uint112"
        },
        {
          "internalType": "bool",
          "name": "staked",
          "type": "bool"
        },
        {
          "internalType": "uint112",
          "name": "stake",
          "type": "uint112"
        },
        {
          "internalType": "uint32",
          "name": "unstakeDelaySec",
          "type": "uint32"
        },
        {
          "internalType": "uint48",
          "name": "withdrawTime",
          "type": "uint48"
        }
      ],
      "stateMutability": "view",
      "type": "function"
    },
    {
      "inputs": [
        {
          "internalType": "address",
          "name": "account",
          "type": "address"
        }
      ],
      "name": "getDepositInfo",
      "outputs": [
        {
          "components": [
            {
              "internalType": "uint112",
              "name": "deposit",
              "type": "uint112"
            },
            {
              "internalType": "bool",
              "name": "staked",
              "type": "bool"
            },
            {
              "internalType": "uint112",
              "name": "stake",
              "type": "uint112"
            },
            {
              "internalType": "uint32",
              "name": "unstakeDelaySec",
              "type": "uint32"
            },
            {
              "internalType": "uint48",
              "name": "withdrawTime",
              "type": "uint48"
            }
          ],
          "internalType": "struct IStakeManager.DepositInfo",
          "name": "info",
          "type": "tuple"
        }
      ],
      "stateMutability": "view",
      "type": "function"
    },
    {
      "inputs": [
        {
          "internalType": "address",
          "name": "sender",
          "type": "address"
        },
        {
          "internalType": "uint192",
          "name": "key",
          "type": "uint192"
        }
      ],
      "name": "getNonce",
      "outputs": [
        {
          "internalType": "uint256",
          "name": "nonce",
          "type": "uint256"
        }
      ],
      "stateMutability": "view",
      "type": "function"
    },
    {
      "inputs": [
        {
          "internalType": "bytes",
          "name": "initCode",
          "type": "bytes"
        }
      ],
      "name": "getSenderAddress",
      "outputs": [],
      "stateMutability": "nonpayable",
      "type": "function"
    },
    {
      "inputs": [
        {
          "components": [
            {
              "internalType": "address",
              "name": "sender",
              "type": "address"
            },
            {
              "internalType": "uint256",
              "name": "nonce",
              "type": "uint256"
            },
            {
              "internalType": "bytes",
              "name": "initCode",
              "type": "bytes"
            },
            {
              "internalType": "bytes",
              "name": "callData",
              "type": "bytes"
            },
            {
              "internalType": "uint256",
              "name": "callGasLimit",
              "type": "uint256"
            },
            {
              "internalType": "uint256",
              "name": "verificationGasLimit",
              "type": "uint256"
            },
            {
              "internalType": "uint256",
              "name": "preVerificationGas",
              "type": "uint256"
            },
            {
              "internalType": "uint256",
              "name": "maxFeePerGas",
              "type": "uint256"
            },
            {
              "internalType": "uint256",
              "name": "maxPriorityFeePerGas",
              "type": "uint256"
            },
            {
              "internalType": "bytes",
              "name": "paymasterAndData",
              "type": "bytes"
            },
            {
              "internalType": "bytes",
              "name": "signature",
              "type": "bytes"
            }
          ],
          "internalType": "struct UserOperation",
          "name": "userOp",
          "type": "tuple"
        }
      ],
      "name": "getUserOpHash",
      "outputs": [
        {
          "internalType": "bytes32",
          "name": "",
          "type": "bytes32"
        }
      ],
      "stateMutability": "view",
      "type": "function"
    },
    {
      "inputs": [
        {
          "components": [
            {
              "components": [
                {
                  "internalType": "address",
                  "name": "sender",
                  "type": "address"
                },
                {
                  "internalType": "uint256",
                  "name": "nonce",
                  "type": "uint256"
                },
                {
                  "internalType": "bytes",
                  "name": "initCode",
                  "type": "bytes"
                },
                {
                  "internalType": "bytes",
                  "name": "callData",
                  "type": "bytes"
                },
                {
                  "internalType": "uint256",
                  "name": "callGasLimit",
                  "type": "uint256"
                },
                {
                  "internalType": "uint256",
                  "name": "verificationGasLimit",
                  "type": "uint256"
                },
                {
                  "internalType": "uint256",
                  "name": "preVerificationGas",
                  "type": "uint256"
                },
                {
                  "internalType": "uint256",
                  "name": "maxFeePerGas",
                  "type": "uint256"
                },
                {
                  "internalType": "uint256",
                  "name": "maxPriorityFeePerGas",
                  "type": "uint256"
                },
                {
                  "internalType": "bytes",
                  "name": "paymasterAndData",
                  "type": "bytes"
                },
                {
                  "internalType": "bytes",
                  "name": "signature",
                  "type": "bytes"
                }
              ],
              "internalType": "struct UserOperation[]",
              "name": "userOps",
              "type": "tuple[]"
            },
            {
              "internalType": "contract IAggregator",
              "name": "aggregator",
              "type": "address"
            },
            {
              "internalType": "bytes",
              "name": "signature",
              "type": "bytes"
            }
          ],
          "internalType": "struct IEntryPoint.UserOpsPerAggregator[]",
          "name": "opsPerAggregator",
          "type": "tuple[]"
        },
        {
          "internalType": "address payable",
          "name": "beneficiary",
          "type": "address"
        }
      ],
      "name": "handleAggregatedOps",
      "outputs": [],
      "stateMutability": "nonpayable",
      "type": "function"
    },
    {
      "inputs": [
        {
          "components": [
            {
              "internalType": "address",
              "name": "sender",
              "type": "address"
            },
            {
              "internalType": "uint256",
              "name": "nonce",
              "type": "uint256"
            },
            {
              "internalType": "bytes",
              "name": "initCode",
              "type": "bytes"
            },
            {
              "internalType": "bytes",
              "name": "callData",
              "type": "bytes"
            },
            {
              "internalType": "uint256",
              "name": "callGasLimit",
              "type": "uint256"
            },
            {
              "internalType": "uint256",
              "name": "verificationGasLimit",
              "type": "uint256"
            },
            {
              "internalType": "uint256",
              "name": "preVerificationGas",
              "type": "uint256"
            },
            {
              "internalType": "uint256",
              "name": "maxFeePerGas",
              "type": "uint256"
            },
            {
              "internalType": "uint256",
              "name": "maxPriorityFeePerGas",
              "type": "uint256"
            },
            {
              "internalType": "bytes",
              "name": "paymasterAndData",
              "type": "bytes"
            },
            {
              "internalType": "bytes",
              "name": "signature",
              "type": "bytes"
            }
          ],
          "internalType": "struct UserOperation[]",
          "name": "ops",
          "type": "tuple[]"
        },
        {
          "internalType": "address payable",
          "name": "beneficiary",
          "type": "address"
        }
      ],
      "name": "handleOps",
      "outputs": [],
      "stateMutability": "nonpayable",
      "type": "function"
    },
    {
      "inputs": [
        {
          "internalType": "uint192",
          "name": "key",
          "type": "uint192"
        }
      ],
      "name": "incrementNonce",
      "outputs": [],
      "stateMutability": "nonpayable",
      "type": "function"
    },
    {
      "inputs": [
        {
          "internalType": "bytes",
          "name": "callData",
          "type": "bytes"
        },
        {
          "components": [
            {
              "components": [
                {
                  "internalType": "address",
                  "name": "sender",
                  "type": "address"
                },
                {
                  "internalType": "uint256",
                  "name": "nonce",
                  "type": "uint256"
                },
                {
                  "internalType": "uint256",
                  "name": "callGasLimit",
                  "type": "uint256"
                },
                {
                  "internalType": "uint256",
                  "name": "verificationGasLimit",
                  "type": "uint256"
                },
                {
                  "internalType": "uint256",
                  "name": "preVerificationGas",
                  "type": "uint256"
                },
                {
                  "internalType": "address",
                  "name": "paymaster",
                  "type": "address"
                },
                {
                  "internalType": "uint256",
                  "name": "maxFeePerGas",
                  "type": "uint256"
                },
                {
                  "internalType": "uint256",
                  "name": "maxPriorityFeePerGas",
                  "type": "uint256"
                }
              ],
              "internalType": "struct EntryPoint.MemoryUserOp",
              "name": "mUserOp",
              "type": "tuple"
            },
            {
              "internalType": "bytes32",
              "name": "userOpHash",
              "type": "bytes32"
            },
            {
              "internalType": "uint256",
              "name": "prefund",
              "type": "uint256"
            },
            {
              "internalType": "uint256",
              "name": "contextOffset",
              "type": "uint256"
            },
            {
              "internalType": "uint256",
              "name": "preOpGas",
              "type": "uint256"
            }
          ],
          "internalType": "struct EntryPoint.UserOpInfo",
          "name": "opInfo",
          "type": "tuple"
        },
        {
          "internalType": "bytes",
          "name": "context",
          "type": "bytes"
        }
      ],
      "name": "innerHandleOp",
      "outputs": [
        {
          "internalType": "uint256",
          "name": "actualGasCost",
          "type": "uint256"
        }
      ],
      "stateMutability": "nonpayable",
      "type": "function"
    },
    {
      "inputs": [
        {
          "internalType": "address",
          "name": "",
          "type": "address"
        },
        {
          "internalType": "uint192",
          "name": "",
          "type": "uint192"
        }
      ],
      "name": "nonceSequenceNumber",
      "outputs": [
        {
          "internalType": "uint256",
          "name": "",
          "type": "uint256"
        }
      ],
      "stateMutability": "view",
      "type": "function"
    },
    {
      "inputs": [
        {
          "components": [
            {
              "internalType": "address",
              "name": "sender",
              "type": "address"
            },
            {
              "internalType": "uint256",
              "name": "nonce",
              "type": "uint256"
            },
            {
              "internalType": "bytes",
              "name": "initCode",
              "type": "bytes"
            },
            {
              "internalType": "bytes",
              "name": "callData",
              "type": "bytes"
            },
            {
              "internalType": "uint256",
              "name": "callGasLimit",
              "type": "uint256"
            },
            {
              "internalType": "uint256",
              "name": "verificationGasLimit",
              "type": "uint256"
            },
            {
              "internalType": "uint256",
              "name": "preVerificationGas",
              "type": "uint256"
            },
            {
              "internalType": "uint256",
              "name": "maxFeePerGas",
              "type": "uint256"
            },
            {
              "internalType": "uint256",
              "name": "maxPriorityFeePerGas",
              "type": "uint256"
            },
            {
              "internalType": "bytes",
              "name": "paymasterAndData",
              "type": "bytes"
            },
            {
              "internalType": "bytes",
              "name": "signature",
              "type": "bytes"
            }
          ],
          "internalType": "struct UserOperation",
          "name": "op",
          "type": "tuple"
        },
        {
          "internalType": "address",
          "name": "target",
          "type": "address"
        },
        {
          "internalType": "bytes",
          "name": "targetCallData",
          "type": "bytes"
        }
      ],
      "name": "simulateHandleOp",
      "outputs": [],
      "stateMutability": "nonpayable",
      "type": "function"
    },
    {
      "inputs": [
        {
          "components": [
            {
              "internalType": "address",
              "name": "sender",
              "type": "address"
            },
            {
              "internalType": "uint256",
              "name": "nonce",
              "type": "uint256"
            },
            {
              "internalType": "bytes",
              "name": "initCode",
              "type": "bytes"
            },
            {
              "internalType": "bytes",
              "name": "callData",
              "type": "bytes"
            },
            {
              "internalType": "uint256",
              "name": "callGasLimit",
              "type": "uint256"
            },
            {
              "internalType": "uint256",
              "name": "verificationGasLimit",
              "type": "uint256"
            },
            {
              "internalType": "uint256",
              "name": "preVerificationGas",
              "type": "uint256"
            },
            {
              "internalType": "uint256",
              "name": "maxFeePerGas",
              "type": "uint256"
            },
            {
              "internalType": "uint256",
              "name": "maxPriorityFeePerGas",
              "type": "uint256"
            },
            {
              "internalType": "bytes",
              "name": "paymasterAndData",
              "type": "bytes"
            },
            {
              "internalType": "bytes",
              "name": "signature",
              "type": "bytes"
            }
          ],
          "internalType": "struct UserOperation",
          "name": "userOp",
          "type": "tuple"
        }
      ],
      "name": "simulateValidation",
      "outputs": [],
      "stateMutability": "nonpayable",
      "type": "function"
    },
    {
      "inputs": [],
      "name": "unlockStake",
      "outputs": [],
      "stateMutability": "nonpayable",
      "type": "function"
    },
    {
      "inputs": [
        {
          "internalType": "address payable",
          "name": "withdrawAddress",
          "type": "address"
        }
      ],
      "name": "withdrawStake",
      "outputs": [],
      "stateMutability": "nonpayable",
      "type": "function"
    },
    {
      "inputs": [
        {
          "internalType": "address payable",
          "name": "withdrawAddress",
          "type": "address"
        },
        {
          "internalType": "uint256",
          "name": "withdrawAmount",
          "type": "uint256"
        }
      ],
      "name": "withdrawTo",
      "outputs": [],
      "stateMutability": "nonpayable",
      "type": "function"
    },
    {
      "stateMutability": "payable",
      "type": "receive"
    }
  ],
  "bytecode": "0x60a0604052604051620000129062000055565b604051809103906000f0801580156200002f573d6000803e3d6000fd5b506001600160a01b03166080523480156200004957600080fd5b50600160025562000063565b610220806200432083390190565b60805161429a62000086600039600081816113e101526130ab015261429a6000f3fe6080604052600436106101635760003560e01c80638f41ec5a116100c0578063bb9fe6bf11610074578063d6383f9411610059578063d6383f94146104af578063ee219423146104cf578063fc7e286d146104ef57600080fd5b8063bb9fe6bf1461047a578063c23a5cea1461048f57600080fd5b80639b249f69116100a55780639b249f6914610427578063a619353114610447578063b760faf91461046757600080fd5b80638f41ec5a146103f2578063957122ab1461040757600080fd5b8063205c2878116101175780634b1d7cf5116100fc5780634b1d7cf5146102765780635287ce121461029657806370a08231146103b357600080fd5b8063205c28781461023657806335567e1a1461025657600080fd5b80631b2e01b8116101485780631b2e01b8146101ab5780631d732756146101f65780631fad948c1461021657600080fd5b80630396cb60146101785780630bd28e3b1461018b57600080fd5b3661017357610171336105a4565b005b600080fd5b61017161018636600461337e565b61060b565b34801561019757600080fd5b506101716101a63660046133d1565b6108c9565b3480156101b757600080fd5b506101e36101c636600461340c565b600160209081526000928352604080842090915290825290205481565b6040519081526020015b60405180910390f35b34801561020257600080fd5b506101e361021136600461360b565b610911565b34801561022257600080fd5b50610171610231366004613716565b610a9d565b34801561024257600080fd5b5061017161025136600461376d565b610c62565b34801561026257600080fd5b506101e361027136600461340c565b610df0565b34801561028257600080fd5b50610171610291366004613716565b610e47565b3480156102a257600080fd5b5061035b6102b1366004613799565b6040805160a081018252600080825260208201819052918101829052606081018290526080810191909152506001600160a01b031660009081526020818152604091829020825160a08101845281546001600160701b038082168352600160701b820460ff16151594830194909452600160781b90049092169282019290925260019091015463ffffffff81166060830152640100000000900465ffffffffffff16608082015290565b6040805182516001600160701b03908116825260208085015115159083015283830151169181019190915260608083015163ffffffff169082015260809182015165ffffffffffff169181019190915260a0016101ed565b3480156103bf57600080fd5b506101e36103ce366004613799565b6001600160a01b03166000908152602081905260409020546001600160701b031690565b3480156103fe57600080fd5b506101e3600181565b34801561041357600080fd5b506101716104223660046137b6565b6112ca565b34801561043357600080fd5b5061017161044236600461383b565b6113c7565b34801561045357600080fd5b506101e3610462366004613896565b61149b565b610171610475366004613799565b6105a4565b34801561048657600080fd5b506101716114dd565b34801561049b57600080fd5b506101716104aa366004613799565b611630565b3480156104bb57600080fd5b506101716104ca3660046138cb565b611886565b3480156104db57600080fd5b506101716104ea366004613896565b61199a565b3480156104fb57600080fd5b5061055e61050a366004613799565b600060208190529081526040902080546001909101546001600160701b0380831692600160701b810460ff1692600160781b9091049091169063ffffffff811690640100000000900465ffffffffffff1685565b604080516001600160701b0396871681529415156020860152929094169183019190915263ffffffff16606082015265ffffffffffff909116608082015260a0016101ed565b6105ae8134611c6e565b6001600160a01b03811660008181526020818152604091829020805492516001600160701b03909316835292917f2da466a7b24304f47e87fa2e1e5a81b9831ce54fec19055ce277ca2f39ba42c491015b60405180910390a25050565b33600090815260208190526040902063ffffffff82166106725760405162461bcd60e51b815260206004820152601a60248201527f6d757374207370656369667920756e7374616b652064656c617900000000000060448201526064015b60405180910390fd5b600181015463ffffffff90811690831610156106d05760405162461bcd60e51b815260206004820152601c60248201527f63616e6e6f7420646563726561736520756e7374616b652074696d65000000006044820152606401610669565b80546000906106f0903490600160781b90046001600160701b0316613943565b9050600081116107425760405162461bcd60e51b815260206004820152601260248201527f6e6f207374616b652073706563696669656400000000000000000000000000006044820152606401610669565b6001600160701b038111156107995760405162461bcd60e51b815260206004820152600e60248201527f7374616b65206f766572666c6f770000000000000000000000000000000000006044820152606401610669565b6040805160a08101825283546001600160701b0390811682526001602080840182815286841685870190815263ffffffff808b16606088019081526000608089018181523380835296829052908a902098518954955194518916600160781b027fffffff0000000000000000000000000000ffffffffffffffffffffffffffffff951515600160701b026effffffffffffffffffffffffffffff199097169190991617949094179290921695909517865551949092018054925165ffffffffffff166401000000000269ffffffffffffffffffff19909316949093169390931717905590517fa5ae833d0bb1dcd632d98a8b70973e8516812898e19bf27b70071ebc8dc52c01906108bc908490879091825263ffffffff16602082015260400190565b60405180910390a2505050565b33600090815260016020908152604080832077ffffffffffffffffffffffffffffffffffffffffffffffff85168452909152812080549161090983613956565b919050555050565b6000805a90503330146109665760405162461bcd60e51b815260206004820152601760248201527f4141393220696e7465726e616c2063616c6c206f6e6c790000000000000000006044820152606401610669565b8451604081015160608201518101611388015a10156109a9577fdeaddead0000000000000000000000000000000000000000000000000000000060005260206000fd5b875160009015610a3d5760006109c6846000015160008c86611d1e565b905080610a3b5760006109da610800611d36565b805190915015610a355784600001516001600160a01b03168a602001517f1c4fada7374c0a9ee8841fc38afe82932dc0f8e69012e927f061a8bae611a201876020015184604051610a2c9291906139bf565b60405180910390a35b60019250505b505b600088608001515a8603019050610a8f6000838b8b8b8080601f016020809104026020016040519081016040528093929190818152602001838380828437600092019190915250889250611d62915050565b9a9950505050505050505050565b6002805403610aee5760405162461bcd60e51b815260206004820152601f60248201527f5265656e7472616e637947756172643a207265656e7472616e742063616c6c006044820152606401610669565b600280558160008167ffffffffffffffff811115610b0e57610b0e613441565b604051908082528060200260200182016040528015610b4757816020015b610b346132f4565b815260200190600190039081610b2c5790505b50905060005b82811015610bc0576000828281518110610b6957610b696139d8565b60200260200101519050600080610ba4848a8a87818110610b8c57610b8c6139d8565b9050602002810190610b9e91906139ee565b85612064565b91509150610bb5848383600061224f565b505050600101610b4d565b506040516000907fbb47ee3e183a558b1a2ff0874b079f3fc5478b7454eacf2bfc5af2ff5878f972908290a160005b83811015610c4a57610c3e81888884818110610c0d57610c0d6139d8565b9050602002810190610c1f91906139ee565b858481518110610c3157610c316139d8565b6020026020010151612419565b90910190600101610bef565b50610c558482612567565b5050600160025550505050565b33600090815260208190526040902080546001600160701b0316821115610ccb5760405162461bcd60e51b815260206004820152601960248201527f576974686472617720616d6f756e7420746f6f206c61726765000000000000006044820152606401610669565b8054610ce19083906001600160701b0316613a0f565b81546dffffffffffffffffffffffffffff19166001600160701b0391909116178155604080516001600160a01b03851681526020810184905233917fd1c19fbcd4551a5edfb66d43d2e337c04837afda3482b42bdf569a8fccdae5fb910160405180910390a26000836001600160a01b03168360405160006040518083038185875af1925050503d8060008114610d94576040519150601f19603f3d011682016040523d82523d6000602084013e610d99565b606091505b5050905080610dea5760405162461bcd60e51b815260206004820152601260248201527f6661696c656420746f20776974686472617700000000000000000000000000006044820152606401610669565b50505050565b6001600160a01b038216600090815260016020908152604080832077ffffffffffffffffffffffffffffffffffffffffffffffff8516845290915290819020549082901b67ffffffffffffffff1916175b92915050565b6002805403610e985760405162461bcd60e51b815260206004820152601f60248201527f5265656e7472616e637947756172643a207265656e7472616e742063616c6c006044820152606401610669565b60028055816000805b828110156110225736868683818110610ebc57610ebc6139d8565b9050602002810190610ece9190613a22565b9050366000610edd8380613a38565b90925090506000610ef46040850160208601613799565b90506000196001600160a01b03821601610f505760405162461bcd60e51b815260206004820152601760248201527f4141393620696e76616c69642061676772656761746f720000000000000000006044820152606401610669565b6001600160a01b03811615611006576001600160a01b03811663e3563a4f8484610f7d6040890189613a82565b6040518563ffffffff1660e01b8152600401610f9c9493929190613c2f565b60006040518083038186803b158015610fb457600080fd5b505afa925050508015610fc5575060015b611006576040517f86a9f7500000000000000000000000000000000000000000000000000000000081526001600160a01b0382166004820152602401610669565b6110108287613943565b95505060019093019250610ea1915050565b5060008167ffffffffffffffff81111561103e5761103e613441565b60405190808252806020026020018201604052801561107757816020015b6110646132f4565b81526020019060019003908161105c5790505b506040519091507fbb47ee3e183a558b1a2ff0874b079f3fc5478b7454eacf2bfc5af2ff5878f97290600090a16000805b8481101561117e57368888838181106110c3576110c36139d8565b90506020028101906110d59190613a22565b90503660006110e48380613a38565b909250905060006110fb6040850160208601613799565b90508160005b8181101561116c57600089898151811061111d5761111d6139d8565b602002602001015190506000806111408b898987818110610b8c57610b8c6139d8565b915091506111508483838961224f565b8a61115a81613956565b9b505060019093019250611101915050565b5050600190940193506110a892505050565b50600080915060005b8581101561128557368989838181106111a2576111a26139d8565b90506020028101906111b49190613a22565b90506111c66040820160208301613799565b6001600160a01b03167f575ff3acadd5ab348fe1855e217e0f3678f8d767d7494c9f9fefbee2e17cca4d60405160405180910390a23660006112088380613a38565b90925090508060005b81811015611274576112538885858481811061122f5761122f6139d8565b905060200281019061124191906139ee565b8b8b81518110610c3157610c316139d8565b61125d9088613943565b96508761126981613956565b985050600101611211565b505060019093019250611187915050565b506040516000907f575ff3acadd5ab348fe1855e217e0f3678f8d767d7494c9f9fefbee2e17cca4d908290a26112bb8682612567565b50506001600255505050505050565b831580156112e057506001600160a01b0383163b155b1561132d5760405162461bcd60e51b815260206004820152601960248201527f41413230206163636f756e74206e6f74206465706c6f796564000000000000006044820152606401610669565b601481106113a55760006113446014828486613cac565b61134d91613cd6565b60601c9050803b6000036113a35760405162461bcd60e51b815260206004820152601b60248201527f41413330207061796d6173746572206e6f74206465706c6f79656400000000006044820152606401610669565b505b60405162461bcd60e51b81526020600482015260006024820152604401610669565b604051632b870d1b60e11b81526000906001600160a01b037f0000000000000000000000000000000000000000000000000000000000000000169063570e1a36906114189086908690600401613d0b565b6020604051808303816000875af1158015611437573d6000803e3d6000fd5b505050506040513d601f19601f8201168201806040525081019061145b9190613d1f565b6040517f6ca7b8060000000000000000000000000000000000000000000000000000000081526001600160a01b0382166004820152909150602401610669565b60006114a682612665565b6040805160208101929092523090820152466060820152608001604051602081830303815290604052805190602001209050919050565b3360009081526020819052604081206001810154909163ffffffff90911690036115495760405162461bcd60e51b815260206004820152600a60248201527f6e6f74207374616b6564000000000000000000000000000000000000000000006044820152606401610669565b8054600160701b900460ff166115a15760405162461bcd60e51b815260206004820152601160248201527f616c726561647920756e7374616b696e670000000000000000000000000000006044820152606401610669565b60018101546000906115b99063ffffffff1642613d3c565b60018301805469ffffffffffff00000000191664010000000065ffffffffffff84169081029190911790915583546eff00000000000000000000000000001916845560405190815290915033907ffa9b3c14cc825c412c9ed81b3ba365a5b459439403f18829e572ed53a4180f0a906020016105ff565b3360009081526020819052604090208054600160781b90046001600160701b03168061169e5760405162461bcd60e51b815260206004820152601460248201527f4e6f207374616b6520746f2077697468647261770000000000000000000000006044820152606401610669565b6001820154640100000000900465ffffffffffff166116ff5760405162461bcd60e51b815260206004820152601d60248201527f6d7573742063616c6c20756e6c6f636b5374616b6528292066697273740000006044820152606401610669565b60018201544264010000000090910465ffffffffffff1611156117645760405162461bcd60e51b815260206004820152601b60248201527f5374616b65207769746864726177616c206973206e6f742064756500000000006044820152606401610669565b60018201805469ffffffffffffffffffff1916905581547fffffff0000000000000000000000000000ffffffffffffffffffffffffffffff168255604080516001600160a01b03851681526020810183905233917fb7c918e0e249f999e965cafeb6c664271b3f4317d296461500e71da39f0cbda3910160405180910390a26000836001600160a01b03168260405160006040518083038185875af1925050503d8060008114611830576040519150601f19603f3d011682016040523d82523d6000602084013e611835565b606091505b5050905080610dea5760405162461bcd60e51b815260206004820152601860248201527f6661696c656420746f207769746864726177207374616b6500000000000000006044820152606401610669565b61188e6132f4565b6118978561267e565b6000806118a660008885612064565b9150915060006118b68383612758565b90506118c143600052565b60006118cf60008a87612419565b90506118da43600052565b600060606001600160a01b038a161561195057896001600160a01b03168989604051611907929190613d62565b6000604051808303816000865af19150503d8060008114611944576040519150601f19603f3d011682016040523d82523d6000602084013e611949565b606091505b5090925090505b8660800151838560200151866040015185856040517f8b7ac98000000000000000000000000000000000000000000000000000000000815260040161066996959493929190613d72565b6119a26132f4565b6119ab8261267e565b6000806119ba60008585612064565b845160a00151604080518082018252600080825260208083018281526001600160a01b03958616835282825284832080546001600160701b03600160781b918290048116875260019283015463ffffffff9081169094528d51518851808a018a5287815280870188815291909a16875286865288872080549390930490911689529101549091169052835180850190945281845283015293955091935090366000611a6860408a018a613a82565b909250905060006014821015611a7f576000611a9a565b611a8d601460008486613cac565b611a9691613cd6565b60601c5b604080518082018252600080825260208083018281526001600160a01b0386168352908290529290208054600160781b90046001600160701b031682526001015463ffffffff1690915290915093505050506000611af88686612758565b9050600081600001519050600060016001600160a01b0316826001600160a01b031614905060006040518060c001604052808b6080015181526020018b6040015181526020018315158152602001856020015165ffffffffffff168152602001856040015165ffffffffffff168152602001611b758c6060015190565b905290506001600160a01b03831615801590611b9b57506001600160a01b038316600114155b15611c34576040805180820182526001600160a01b0385168082528251808401845260008082526020808301828152938252818152908590208054600160781b90046001600160701b031683526001015463ffffffff169092529082015290517ffaecb4e4000000000000000000000000000000000000000000000000000000008152610669908390899089908c908690600401613e14565b808686896040517fe0cff05f0000000000000000000000000000000000000000000000000000000081526004016106699493929190613e94565b6001600160a01b03821660009081526020819052604081208054909190611c9f9084906001600160701b0316613943565b90506001600160701b03811115611cf85760405162461bcd60e51b815260206004820152601060248201527f6465706f736974206f766572666c6f77000000000000000000000000000000006044820152606401610669565b81546dffffffffffffffffffffffffffff19166001600160701b03919091161790555050565b6000806000845160208601878987f195945050505050565b60603d82811115611d445750815b604051602082018101604052818152816000602083013e9392505050565b6000805a855190915060009081611d7882612824565b60a08301519091506001600160a01b038116611d975782519350611f49565b809350600088511115611f4957868202955060028a6002811115611dbd57611dbd613eeb565b14611e2f57606083015160405163a9a2340960e01b81526001600160a01b0383169163a9a2340991611df7908e908d908c90600401613f01565b600060405180830381600088803b158015611e1157600080fd5b5087f1158015611e25573d6000803e3d6000fd5b5050505050611f49565b606083015160405163a9a2340960e01b81526001600160a01b0383169163a9a2340991611e64908e908d908c90600401613f01565b600060405180830381600088803b158015611e7e57600080fd5b5087f193505050508015611e90575060015b611f4957611e9c613f48565b806308c379a003611ef55750611eb0613f64565b80611ebb5750611ef7565b8b81604051602001611ecd9190613fee565b60408051601f1981840301815290829052631101335b60e11b825261066992916004016139bf565b505b8a604051631101335b60e11b81526004016106699181526040602082018190526012908201527f4141353020706f73744f70207265766572740000000000000000000000000000606082015260800190565b5a85038701965081870295508589604001511015611fb2578a604051631101335b60e11b815260040161066991815260406020808301829052908201527f414135312070726566756e642062656c6f772061637475616c476173436f7374606082015260800190565b6040890151869003611fc48582611c6e565b6000808c6002811115611fd957611fd9613eeb565b1490508460a001516001600160a01b031685600001516001600160a01b03168c602001517f49628fd1471006c1482da88028e9ce4dbb080b815c9b0344d39e5a8e6ec1419f8860200151858d8f60405161204c949392919093845291151560208401526040830152606082015260800190565b60405180910390a45050505050505095945050505050565b60008060005a84519091506120798682612854565b6120828661149b565b6020860152604081015160608201516080830151171760e087013517610100870135176effffffffffffffffffffffffffffff8111156121045760405162461bcd60e51b815260206004820152601860248201527f41413934206761732076616c756573206f766572666c6f7700000000000000006044820152606401610669565b6000806121108461294d565b905061211e8a8a8a8461299a565b855160208701519199509193506121359190612bf9565b61218b5789604051631101335b60e11b8152600401610669918152604060208201819052601a908201527f4141323520696e76616c6964206163636f756e74206e6f6e6365000000000000606082015260800190565b61219443600052565b60a08401516060906001600160a01b0316156121bc576121b78b8b8b8587612c47565b975090505b60005a87039050808b60a001351015612221578b604051631101335b60e11b8152600401610669918152604060208201819052601e908201527f41413430206f76657220766572696669636174696f6e4761734c696d69740000606082015260800190565b60408a018390528160608b015260c08b01355a8803018a608001818152505050505050505050935093915050565b60008061225b85612e71565b91509150816001600160a01b0316836001600160a01b0316146122ca5785604051631101335b60e11b81526004016106699181526040602082018190526014908201527f41413234207369676e6174757265206572726f72000000000000000000000000606082015260800190565b80156123225785604051631101335b60e11b81526004016106699181526040602082018190526017908201527f414132322065787069726564206f72206e6f7420647565000000000000000000606082015260800190565b600061232d85612e71565b925090506001600160a01b038116156123925786604051631101335b60e11b81526004016106699181526040602082018190526014908201527f41413334207369676e6174757265206572726f72000000000000000000000000606082015260800190565b81156124105786604051631101335b60e11b81526004016106699181526040602082018190526021908201527f41413332207061796d61737465722065787069726564206f72206e6f7420647560608201527f6500000000000000000000000000000000000000000000000000000000000000608082015260a00190565b50505050505050565b6000805a9050600061242c846060015190565b905030631d7327566124416060880188613a82565b87856040518563ffffffff1660e01b81526004016124629493929190614033565b6020604051808303816000875af192505050801561249d575060408051601f3d908101601f1916820190925261249a918101906140e7565b60015b61255b57600060206000803e506000517f215221530000000000000000000000000000000000000000000000000000000081016125265786604051631101335b60e11b8152600401610669918152604060208201819052600f908201527f41413935206f7574206f66206761730000000000000000000000000000000000606082015260800190565b600085608001515a6125389086613a0f565b6125429190613943565b9050612552886002888685611d62565b9450505061255e565b92505b50509392505050565b6001600160a01b0382166125bd5760405162461bcd60e51b815260206004820152601860248201527f4141393020696e76616c69642062656e656669636961727900000000000000006044820152606401610669565b6000826001600160a01b03168260405160006040518083038185875af1925050503d806000811461260a576040519150601f19603f3d011682016040523d82523d6000602084013e61260f565b606091505b50509050806126605760405162461bcd60e51b815260206004820152601f60248201527f41413931206661696c65642073656e6420746f2062656e6566696369617279006044820152606401610669565b505050565b600061267082612ec4565b805190602001209050919050565b3063957122ab6126916040840184613a82565b61269e6020860186613799565b6126ac610120870187613a82565b6040518663ffffffff1660e01b81526004016126cc959493929190614100565b60006040518083038186803b1580156126e457600080fd5b505afa9250505080156126f5575060015b61275557612701613f48565b806308c379a0036127495750612715613f64565b80612720575061274b565b80511561274557600081604051631101335b60e11b81526004016106699291906139bf565b5050565b505b3d6000803e3d6000fd5b50565b604080516060810182526000808252602082018190529181018290529061277e84612f97565b9050600061278b84612f97565b82519091506001600160a01b0381166127a2575080515b602080840151604080860151928501519085015191929165ffffffffffff80831690851610156127d0578193505b8065ffffffffffff168365ffffffffffff1611156127ec578092505b5050604080516060810182526001600160a01b03909416845265ffffffffffff92831660208501529116908201529250505092915050565b60c081015160e082015160009190808203612840575092915050565b61284c82488301613008565b949350505050565b6128616020830183613799565b6001600160a01b0316815260208083013590820152608080830135604083015260a0830135606083015260c0808401359183019190915260e08084013591830191909152610100830135908201523660006128c0610120850185613a82565b9092509050801561294057601481101561291c5760405162461bcd60e51b815260206004820152601d60248201527f4141393320696e76616c6964207061796d6173746572416e64446174610000006044820152606401610669565b61292a601460008385613cac565b61293391613cd6565b60601c60a0840152610dea565b600060a084015250505050565b60a081015160009081906001600160a01b031661296b57600161296e565b60035b60ff16905060008360800151828560600151028560400151010190508360c00151810292505050919050565b60008060005a85518051919250906129bf89886129ba60408c018c613a82565b613020565b60a08201516129cd43600052565b60006001600160a01b038216612a15576001600160a01b0383166000908152602081905260409020546001600160701b0316888111612a0e57808903612a11565b60005b9150505b606084015160208a01516040517f3a871cdd0000000000000000000000000000000000000000000000000000000081526001600160a01b03861692633a871cdd929091612a68918f918790600401614136565b60206040518083038160008887f193505050508015612aa4575060408051601f3d908101601f19168201909252612aa1918101906140e7565b60015b612b3557612ab0613f48565b806308c379a003612ae15750612ac4613f64565b80612acf5750612ae3565b8b81604051602001611ecd919061415b565b505b8a604051631101335b60e11b81526004016106699181526040602082018190526016908201527f4141323320726576657274656420286f72204f4f472900000000000000000000606082015260800190565b95506001600160a01b038216612be6576001600160a01b038316600090815260208190526040902080546001600160701b0316808a1115612bc2578c604051631101335b60e11b81526004016106699181526040602082018190526017908201527f41413231206469646e2774207061792070726566756e64000000000000000000606082015260800190565b81546dffffffffffffffffffffffffffff1916908a90036001600160701b03161790555b5a85039650505050505094509492505050565b6001600160a01b038216600090815260016020908152604080832084821c808552925282208054849167ffffffffffffffff8316919085612c3983613956565b909155501495945050505050565b82516060818101519091600091848111612ca35760405162461bcd60e51b815260206004820152601f60248201527f4141343120746f6f206c6974746c6520766572696669636174696f6e476173006044820152606401610669565b60a08201516001600160a01b038116600090815260208190526040902080548784039291906001600160701b031689811015612d2b578c604051631101335b60e11b8152600401610669918152604060208201819052601e908201527f41413331207061796d6173746572206465706f73697420746f6f206c6f770000606082015260800190565b8981038260000160006101000a8154816001600160701b0302191690836001600160701b03160217905550826001600160a01b031663f465c77e858e8e602001518e6040518563ffffffff1660e01b8152600401612d8b93929190614136565b60006040518083038160008887f193505050508015612dcc57506040513d6000823e601f3d908101601f19168201604052612dc991908101906141a0565b60015b612e5d57612dd8613f48565b806308c379a003612e095750612dec613f64565b80612df75750612e0b565b8d81604051602001611ecd919061422c565b505b8c604051631101335b60e11b81526004016106699181526040602082018190526016908201527f4141333320726576657274656420286f72204f4f472900000000000000000000606082015260800190565b909e909d509b505050505050505050505050565b60008082600003612e8757506000928392509050565b6000612e9284612f97565b9050806040015165ffffffffffff16421180612eb95750806020015165ffffffffffff1642105b905194909350915050565b6060813560208301356000612ee4612edf6040870187613a82565b6132e1565b90506000612ef8612edf6060880188613a82565b9050608086013560a087013560c088013560e08901356101008a01356000612f27612edf6101208e018e613a82565b604080516001600160a01b039c909c1660208d01528b81019a909a5260608b019890985250608089019590955260a088019390935260c087019190915260e08601526101008501526101208401526101408084019190915281518084039091018152610160909201905292915050565b60408051606081018252600080825260208201819052918101919091528160a081901c65ffffffffffff8116600003612fd3575065ffffffffffff5b604080516060810182526001600160a01b03909316835260d09490941c602083015265ffffffffffff16928101929092525090565b60008183106130175781613019565b825b9392505050565b8015610dea578251516001600160a01b0381163b1561308b5784604051631101335b60e11b8152600401610669918152604060208201819052601f908201527f414131302073656e64657220616c726561647920636f6e737472756374656400606082015260800190565b835160600151604051632b870d1b60e11b81526000916001600160a01b037f0000000000000000000000000000000000000000000000000000000000000000169163570e1a3691906130e39088908890600401613d0b565b60206040518083038160008887f1158015613102573d6000803e3d6000fd5b50505050506040513d601f19601f820116820180604052508101906131279190613d1f565b90506001600160a01b0381166131895785604051631101335b60e11b8152600401610669918152604060208201819052601b908201527f4141313320696e6974436f6465206661696c6564206f72204f4f470000000000606082015260800190565b816001600160a01b0316816001600160a01b0316146131f35785604051631101335b60e11b815260040161066991815260406020808301829052908201527f4141313420696e6974436f6465206d7573742072657475726e2073656e646572606082015260800190565b806001600160a01b03163b6000036132565785604051631101335b60e11b815260040161066991815260406020808301829052908201527f4141313520696e6974436f6465206d757374206372656174652073656e646572606082015260800190565b60006132656014828688613cac565b61326e91613cd6565b60601c9050826001600160a01b031686602001517fd51a9c61267aa6196961883ecf5ff2da6619c37dac0fa92122513fb32c032d2d83896000015160a001516040516132d09291906001600160a01b0392831681529116602082015260400190565b60405180910390a350505050505050565b6000604051828085833790209392505050565b6040518060a0016040528061335960405180610100016040528060006001600160a01b031681526020016000815260200160008152602001600081526020016000815260200160006001600160a01b0316815260200160008152602001600081525090565b8152602001600080191681526020016000815260200160008152602001600081525090565b60006020828403121561339057600080fd5b813563ffffffff8116811461301957600080fd5b803577ffffffffffffffffffffffffffffffffffffffffffffffff811681146133cc57600080fd5b919050565b6000602082840312156133e357600080fd5b613019826133a4565b6001600160a01b038116811461275557600080fd5b80356133cc816133ec565b6000806040838503121561341f57600080fd5b823561342a816133ec565b9150613438602084016133a4565b90509250929050565b634e487b7160e01b600052604160045260246000fd5b60a0810181811067ffffffffffffffff8211171561347757613477613441565b60405250565b610100810181811067ffffffffffffffff8211171561347757613477613441565b601f8201601f1916810167ffffffffffffffff811182821017156134c4576134c4613441565b6040525050565b600067ffffffffffffffff8211156134e5576134e5613441565b50601f01601f191660200190565b600081830361018081121561350757600080fd5b60405161351381613457565b8092506101008083121561352657600080fd5b60405192506135348361347d565b61353d85613401565b83526020850135602084015260408501356040840152606085013560608401526080850135608084015261357360a08601613401565b60a084015260c085013560c084015260e085013560e084015282825280850135602083015250610120840135604082015261014084013560608201526101608401356080820152505092915050565b60008083601f8401126135d457600080fd5b50813567ffffffffffffffff8111156135ec57600080fd5b60208301915083602082850101111561360457600080fd5b9250929050565b6000806000806101c0858703121561362257600080fd5b843567ffffffffffffffff8082111561363a57600080fd5b818701915087601f83011261364e57600080fd5b8135613659816134cb565b604051613666828261349e565b8281528a602084870101111561367b57600080fd5b826020860160208301376000602084830101528098505050506136a188602089016134f3565b94506101a08701359150808211156136b857600080fd5b506136c5878288016135c2565b95989497509550505050565b60008083601f8401126136e357600080fd5b50813567ffffffffffffffff8111156136fb57600080fd5b6020830191508360208260051b850101111561360457600080fd5b60008060006040848603121561372b57600080fd5b833567ffffffffffffffff81111561374257600080fd5b61374e868287016136d1565b9094509250506020840135613762816133ec565b809150509250925092565b6000806040838503121561378057600080fd5b823561378b816133ec565b946020939093013593505050565b6000602082840312156137ab57600080fd5b8135613019816133ec565b6000806000806000606086880312156137ce57600080fd5b853567ffffffffffffffff808211156137e657600080fd5b6137f289838a016135c2565b909750955060208801359150613807826133ec565b9093506040870135908082111561381d57600080fd5b5061382a888289016135c2565b969995985093965092949392505050565b6000806020838503121561384e57600080fd5b823567ffffffffffffffff81111561386557600080fd5b613871858286016135c2565b90969095509350505050565b6000610160828403121561389057600080fd5b50919050565b6000602082840312156138a857600080fd5b813567ffffffffffffffff8111156138bf57600080fd5b61284c8482850161387d565b600080600080606085870312156138e157600080fd5b843567ffffffffffffffff808211156138f957600080fd5b6139058883890161387d565b955060208701359150613917826133ec565b909350604086013590808211156136b857600080fd5b634e487b7160e01b600052601160045260246000fd5b80820180821115610e4157610e4161392d565b6000600182016139685761396861392d565b5060010190565b60005b8381101561398a578181015183820152602001613972565b50506000910152565b600081518084526139ab81602086016020860161396f565b601f01601f19169290920160200192915050565b82815260406020820152600061284c6040830184613993565b634e487b7160e01b600052603260045260246000fd5b6000823561015e19833603018112613a0557600080fd5b9190910192915050565b81810381811115610e4157610e4161392d565b60008235605e19833603018112613a0557600080fd5b6000808335601e19843603018112613a4f57600080fd5b83018035915067ffffffffffffffff821115613a6a57600080fd5b6020019150600581901b360382131561360457600080fd5b6000808335601e19843603018112613a9957600080fd5b83018035915067ffffffffffffffff821115613ab457600080fd5b60200191503681900382131561360457600080fd5b6000808335601e19843603018112613ae057600080fd5b830160208101925035905067ffffffffffffffff811115613b0057600080fd5b80360382131561360457600080fd5b81835281816020850137506000828201602090810191909152601f909101601f19169091010190565b6000610160613b5784613b4a85613401565b6001600160a01b03169052565b60208301356020850152613b6e6040840184613ac9565b826040870152613b818387018284613b0f565b92505050613b926060840184613ac9565b8583036060870152613ba5838284613b0f565b925050506080830135608085015260a083013560a085015260c083013560c085015260e083013560e0850152610100808401358186015250610120613bec81850185613ac9565b86840383880152613bfe848284613b0f565b9350505050610140613c1281850185613ac9565b86840383880152613c24848284613b0f565b979650505050505050565b6040808252810184905260006060600586901b830181019083018783805b89811015613c9557868503605f190184528235368c900361015e19018112613c73578283fd5b613c7f868d8301613b38565b9550506020938401939290920191600101613c4d565b505050508281036020840152613c24818587613b0f565b60008085851115613cbc57600080fd5b83861115613cc957600080fd5b5050820193919092039150565b6bffffffffffffffffffffffff198135818116916014851015613d035780818660140360031b1b83161692505b505092915050565b60208152600061284c602083018486613b0f565b600060208284031215613d3157600080fd5b8151613019816133ec565b65ffffffffffff818116838216019080821115613d5b57613d5b61392d565b5092915050565b8183823760009101908152919050565b868152856020820152600065ffffffffffff8087166040840152808616606084015250831515608083015260c060a0830152613db160c0830184613993565b98975050505050505050565b80518252602081015160208301526040810151151560408301526000606082015165ffffffffffff8082166060860152806080850151166080860152505060a082015160c060a085015261284c60c0850182613993565b6000610140808352613e2881840189613dbd565b915050613e42602083018780518252602090810151910152565b845160608301526020948501516080830152835160a08301529284015160c082015281516001600160a01b031660e0820152908301518051610100830152909201516101209092019190915292915050565b60e081526000613ea760e0830187613dbd565b9050613ec0602083018680518252602090810151910152565b8351606083015260208401516080830152825160a0830152602083015160c083015295945050505050565b634e487b7160e01b600052602160045260246000fd5b600060038510613f2157634e487b7160e01b600052602160045260246000fd5b84825260606020830152613f386060830185613993565b9050826040830152949350505050565b600060033d1115613f615760046000803e5060005160e01c5b90565b600060443d1015613f725790565b6040516003193d81016004833e81513d67ffffffffffffffff8160248401118184111715613fa257505050505090565b8285019150815181811115613fba5750505050505090565b843d8701016020828501011115613fd45750505050505090565b613fe36020828601018761349e565b509095945050505050565b7f4141353020706f73744f702072657665727465643a200000000000000000000081526000825161402681601685016020870161396f565b9190910160160192915050565b60006101c08083526140488184018789613b0f565b905084516001600160a01b03808251166020860152602082015160408601526040820151606086015260608201516080860152608082015160a08601528060a08301511660c08601525060c081015160e085015260e08101516101008501525060208501516101208401526040850151610140840152606085015161016084015260808501516101808401528281036101a0840152613c248185613993565b6000602082840312156140f957600080fd5b5051919050565b606081526000614114606083018789613b0f565b6001600160a01b03861660208401528281036040840152613db1818587613b0f565b6060815260006141496060830186613b38565b60208301949094525060400152919050565b7f414132332072657665727465643a20000000000000000000000000000000000081526000825161419381600f85016020870161396f565b91909101600f0192915050565b600080604083850312156141b357600080fd5b825167ffffffffffffffff8111156141ca57600080fd5b8301601f810185136141db57600080fd5b80516141e6816134cb565b6040516141f3828261349e565b82815287602084860101111561420857600080fd5b61421983602083016020870161396f565b6020969096015195979596505050505050565b7f414133332072657665727465643a20000000000000000000000000000000000081526000825161419381600f85016020870161396f56fea26469706673582212209f3c3edec68d9b4d7edcbb8182cd7e7d6e1246f01dbf82b73322a4730289847264736f6c63430008180033608060405234801561001057600080fd5b50610200806100206000396000f3fe608060405234801561001057600080fd5b506004361061002b5760003560e01c8063570e1a3614610030575b600080fd5b61004361003e3660046100f9565b61006c565b60405173ffffffffffffffffffffffffffffffffffffffff909116815260200160405180910390f35b60008061007c601482858761016b565b61008591610195565b60601c90506000610099846014818861016b565b8080601f016020809104026020016040519081016040528093929190818152602001838380828437600092018290525084519495509360209350849250905082850182875af190506000519350806100f057600093505b50505092915050565b6000806020838503121561010c57600080fd5b823567ffffffffffffffff8082111561012457600080fd5b818501915085601f83011261013857600080fd5b81358181111561014757600080fd5b86602082850101111561015957600080fd5b60209290920196919550909350505050565b6000808585111561017b57600080fd5b8386111561018857600080fd5b5050820193919092039150565b6bffffffffffffffffffffffff1981358181169160148510156101c25780818660140360031b1b83161692505b50509291505056fea2646970667358221220b8ae8cb390d22fcdb46d0a6d928c72266984d478cdecbc496e3c1b9adc22016064736f6c63430008180033",
  "linkReferences": {},
  "deployedLinkReferences": {}
}