{
  "_format": "hh-sol-artifact-1",
  "contractName": "NonceManager",
  "sourceName": "@account-abstraction/contracts/core/NonceManager.sol",
  "abi": [
    {
      "inputs": [
        {
          "internalType": "address",
          "name": "sender",
          "type": "address"
        },
        {
          "internalType": "uint192",
          "name": "key",
          "type": "uint192"
        }
      ],
      "name": "getNonce",
      "outputs": [
        {
          "internalType": "uint256",
          "name": "nonce",
          "type": "uint256"
        }
      ],
      "stateMutability": "view",
      "type": "function"
    },
    {
      "inputs": [
        {
          "internalType": "uint192",
          "name": "key",
          "type": "uint192"
        }
      ],
      "name": "incrementNonce",
      "outputs": [],
      "stateMutability": "nonpayable",
      "type": "function"
    },
    {
      "inputs": [
        {
          "internalType": "address",
          "name": "",
          "type": "address"
        },
        {
          "internalType": "uint192",
          "name": "",
          "type": "uint192"
        }
      ],
      "name": "nonceSequenceNumber",
      "outputs": [
        {
          "internalType": "uint256",
          "name": "",
          "type": "uint256"
        }
      ],
      "stateMutability": "view",
      "type": "function"
    }
  ],
  "bytecode": "0x608060405234801561001057600080fd5b5061025b806100206000396000f3fe608060405234801561001057600080fd5b50600436106100415760003560e01c80630bd28e3b146100465780631b2e01b81461005b57806335567e1a14610095575b600080fd5b610059610054366004610175565b610102565b005b610083610069366004610197565b600060208181529281526040808220909352908152205481565b60405190815260200160405180910390f35b6100836100a3366004610197565b73ffffffffffffffffffffffffffffffffffffffff9190911660009081526020818152604080832077ffffffffffffffffffffffffffffffffffffffffffffffff85168452909152908190205491901b67ffffffffffffffff19161790565b3360009081526020818152604080832077ffffffffffffffffffffffffffffffffffffffffffffffff851684529091528120805491610140836101e5565b919050555050565b803577ffffffffffffffffffffffffffffffffffffffffffffffff8116811461017057600080fd5b919050565b60006020828403121561018757600080fd5b61019082610148565b9392505050565b600080604083850312156101aa57600080fd5b823573ffffffffffffffffffffffffffffffffffffffff811681146101ce57600080fd5b91506101dc60208401610148565b90509250929050565b60006001820161021e577f4e487b7100000000000000000000000000000000000000000000000000000000600052601160045260246000fd5b506001019056fea2646970667358221220b970971b39ed6e67cb249edcc3e61b66db36ec3ede9e9825105c9a2448ef39c864736f6c63430008180033",
  "linkReferences": {},
  "deployedLinkReferences": {}
}